{
  "contractName": "Color",
  "abi": [
    {
      "inputs": [],
      "payable": false,
      "stateMutability": "nonpayable",
      "type": "constructor"
    },
    {
      "anonymous": false,
      "inputs": [
        {
          "indexed": true,
          "internalType": "address",
          "name": "owner",
          "type": "address"
        },
        {
          "indexed": true,
          "internalType": "address",
          "name": "approved",
          "type": "address"
        },
        {
          "indexed": true,
          "internalType": "uint256",
          "name": "tokenId",
          "type": "uint256"
        }
      ],
      "name": "Approval",
      "type": "event"
    },
    {
      "anonymous": false,
      "inputs": [
        {
          "indexed": true,
          "internalType": "address",
          "name": "owner",
          "type": "address"
        },
        {
          "indexed": true,
          "internalType": "address",
          "name": "operator",
          "type": "address"
        },
        {
          "indexed": false,
          "internalType": "bool",
          "name": "approved",
          "type": "bool"
        }
      ],
      "name": "ApprovalForAll",
      "type": "event"
    },
    {
      "anonymous": false,
      "inputs": [
        {
          "indexed": true,
          "internalType": "address",
          "name": "from",
          "type": "address"
        },
        {
          "indexed": true,
          "internalType": "address",
          "name": "to",
          "type": "address"
        },
        {
          "indexed": true,
          "internalType": "uint256",
          "name": "tokenId",
          "type": "uint256"
        }
      ],
      "name": "Transfer",
      "type": "event"
    },
    {
      "constant": false,
      "inputs": [
        {
          "internalType": "address",
          "name": "to",
          "type": "address"
        },
        {
          "internalType": "uint256",
          "name": "tokenId",
          "type": "uint256"
        }
      ],
      "name": "approve",
      "outputs": [],
      "payable": false,
      "stateMutability": "nonpayable",
      "type": "function"
    },
    {
      "constant": true,
      "inputs": [
        {
          "internalType": "address",
          "name": "owner",
          "type": "address"
        }
      ],
      "name": "balanceOf",
      "outputs": [
        {
          "internalType": "uint256",
          "name": "",
          "type": "uint256"
        }
      ],
      "payable": false,
      "stateMutability": "view",
      "type": "function"
    },
    {
      "constant": true,
      "inputs": [
        {
          "internalType": "string",
          "name": "",
          "type": "string"
        }
      ],
      "name": "certificateIdOwner",
      "outputs": [
        {
          "internalType": "address",
          "name": "",
          "type": "address"
        }
      ],
      "payable": false,
      "stateMutability": "view",
      "type": "function"
    },
    {
      "constant": true,
      "inputs": [
        {
          "internalType": "uint256",
          "name": "tokenId",
          "type": "uint256"
        }
      ],
      "name": "getApproved",
      "outputs": [
        {
          "internalType": "address",
          "name": "",
          "type": "address"
        }
      ],
      "payable": false,
      "stateMutability": "view",
      "type": "function"
    },
    {
      "constant": true,
      "inputs": [],
      "name": "getHubAddr",
      "outputs": [
        {
          "internalType": "address",
          "name": "",
          "type": "address"
        }
      ],
      "payable": false,
      "stateMutability": "view",
      "type": "function"
    },
    {
      "constant": true,
      "inputs": [],
      "name": "getMessageData",
      "outputs": [
        {
          "internalType": "bytes",
          "name": "",
          "type": "bytes"
        }
      ],
      "payable": false,
      "stateMutability": "view",
      "type": "function"
    },
    {
      "constant": true,
      "inputs": [],
      "name": "getRecipientBalance",
      "outputs": [
        {
          "internalType": "uint256",
          "name": "",
          "type": "uint256"
        }
      ],
      "payable": false,
      "stateMutability": "view",
      "type": "function"
    },
    {
      "constant": true,
      "inputs": [],
      "name": "getSender",
      "outputs": [
        {
          "internalType": "address",
          "name": "",
          "type": "address"
        }
      ],
      "payable": false,
      "stateMutability": "view",
      "type": "function"
    },
    {
      "constant": true,
      "inputs": [
        {
          "internalType": "address",
          "name": "origSender",
          "type": "address"
        },
        {
          "internalType": "bytes",
          "name": "msgData",
          "type": "bytes"
        }
      ],
      "name": "getSenderFromData",
      "outputs": [
        {
          "internalType": "address",
          "name": "",
          "type": "address"
        }
      ],
      "payable": false,
      "stateMutability": "view",
      "type": "function"
    },
    {
      "constant": true,
      "inputs": [
        {
          "internalType": "address",
          "name": "owner",
          "type": "address"
        },
        {
          "internalType": "address",
          "name": "operator",
          "type": "address"
        }
      ],
      "name": "isApprovedForAll",
      "outputs": [
        {
          "internalType": "bool",
          "name": "",
          "type": "bool"
        }
      ],
      "payable": false,
      "stateMutability": "view",
      "type": "function"
    },
    {
      "constant": true,
      "inputs": [],
      "name": "name",
      "outputs": [
        {
          "internalType": "string",
          "name": "",
          "type": "string"
        }
      ],
      "payable": false,
      "stateMutability": "view",
      "type": "function"
    },
    {
      "constant": true,
      "inputs": [
        {
          "internalType": "uint256",
          "name": "tokenId",
          "type": "uint256"
        }
      ],
      "name": "ownerOf",
      "outputs": [
        {
          "internalType": "address",
          "name": "",
          "type": "address"
        }
      ],
      "payable": false,
      "stateMutability": "view",
      "type": "function"
    },
    {
      "constant": false,
      "inputs": [
        {
          "internalType": "address",
          "name": "from",
          "type": "address"
        },
        {
          "internalType": "address",
          "name": "to",
          "type": "address"
        },
        {
          "internalType": "uint256",
          "name": "tokenId",
          "type": "uint256"
        }
      ],
      "name": "safeTransferFrom",
      "outputs": [],
      "payable": false,
      "stateMutability": "nonpayable",
      "type": "function"
    },
    {
      "constant": false,
      "inputs": [
        {
          "internalType": "address",
          "name": "from",
          "type": "address"
        },
        {
          "internalType": "address",
          "name": "to",
          "type": "address"
        },
        {
          "internalType": "uint256",
          "name": "tokenId",
          "type": "uint256"
        },
        {
          "internalType": "bytes",
          "name": "_data",
          "type": "bytes"
        }
      ],
      "name": "safeTransferFrom",
      "outputs": [],
      "payable": false,
      "stateMutability": "nonpayable",
      "type": "function"
    },
    {
      "constant": false,
      "inputs": [
        {
          "internalType": "address",
          "name": "to",
          "type": "address"
        },
        {
          "internalType": "bool",
          "name": "approved",
          "type": "bool"
        }
      ],
      "name": "setApprovalForAll",
      "outputs": [],
      "payable": false,
      "stateMutability": "nonpayable",
      "type": "function"
    },
    {
      "constant": true,
      "inputs": [
        {
          "internalType": "bytes4",
          "name": "interfaceId",
          "type": "bytes4"
        }
      ],
      "name": "supportsInterface",
      "outputs": [
        {
          "internalType": "bool",
          "name": "",
          "type": "bool"
        }
      ],
      "payable": false,
      "stateMutability": "view",
      "type": "function"
    },
    {
      "constant": true,
      "inputs": [],
      "name": "symbol",
      "outputs": [
        {
          "internalType": "string",
          "name": "",
          "type": "string"
        }
      ],
      "payable": false,
      "stateMutability": "view",
      "type": "function"
    },
    {
      "constant": true,
      "inputs": [
        {
          "internalType": "uint256",
          "name": "index",
          "type": "uint256"
        }
      ],
      "name": "tokenByIndex",
      "outputs": [
        {
          "internalType": "uint256",
          "name": "",
          "type": "uint256"
        }
      ],
      "payable": false,
      "stateMutability": "view",
      "type": "function"
    },
    {
      "constant": true,
      "inputs": [
        {
          "internalType": "address",
          "name": "owner",
          "type": "address"
        },
        {
          "internalType": "uint256",
          "name": "index",
          "type": "uint256"
        }
      ],
      "name": "tokenOfOwnerByIndex",
      "outputs": [
        {
          "internalType": "uint256",
          "name": "",
          "type": "uint256"
        }
      ],
      "payable": false,
      "stateMutability": "view",
      "type": "function"
    },
    {
      "constant": true,
      "inputs": [
        {
          "internalType": "uint256",
          "name": "tokenId",
          "type": "uint256"
        }
      ],
      "name": "tokenURI",
      "outputs": [
        {
          "internalType": "string",
          "name": "",
          "type": "string"
        }
      ],
      "payable": false,
      "stateMutability": "view",
      "type": "function"
    },
    {
      "constant": true,
      "inputs": [],
      "name": "totalSupply",
      "outputs": [
        {
          "internalType": "uint256",
          "name": "",
          "type": "uint256"
        }
      ],
      "payable": false,
      "stateMutability": "view",
      "type": "function"
    },
    {
      "constant": false,
      "inputs": [
        {
          "internalType": "address",
          "name": "from",
          "type": "address"
        },
        {
          "internalType": "address",
          "name": "to",
          "type": "address"
        },
        {
          "internalType": "uint256",
          "name": "tokenId",
          "type": "uint256"
        }
      ],
      "name": "transferFrom",
      "outputs": [],
      "payable": false,
      "stateMutability": "nonpayable",
      "type": "function"
    },
    {
      "constant": true,
      "inputs": [
        {
          "internalType": "uint256",
          "name": "",
          "type": "uint256"
        }
      ],
      "name": "uriList",
      "outputs": [
        {
          "internalType": "string",
          "name": "",
          "type": "string"
        }
      ],
      "payable": false,
      "stateMutability": "view",
      "type": "function"
    },
    {
      "constant": true,
      "inputs": [
        {
          "internalType": "address",
          "name": "",
          "type": "address"
        }
      ],
      "name": "users",
      "outputs": [
        {
          "internalType": "string",
          "name": "dose1hash",
          "type": "string"
        },
        {
          "internalType": "string",
          "name": "dose2hash",
          "type": "string"
        },
        {
          "internalType": "bool",
          "name": "exists",
          "type": "bool"
        }
      ],
      "payable": false,
      "stateMutability": "view",
      "type": "function"
    },
    {
      "constant": true,
      "inputs": [
        {
          "internalType": "address",
          "name": "relay",
          "type": "address"
        },
        {
          "internalType": "address",
          "name": "from",
          "type": "address"
        },
        {
          "internalType": "bytes",
          "name": "encodedFunction",
          "type": "bytes"
        },
        {
          "internalType": "uint256",
          "name": "transactionFee",
          "type": "uint256"
        },
        {
          "internalType": "uint256",
          "name": "gasPrice",
          "type": "uint256"
        },
        {
          "internalType": "uint256",
          "name": "gasLimit",
          "type": "uint256"
        },
        {
          "internalType": "uint256",
          "name": "nonce",
          "type": "uint256"
        },
        {
          "internalType": "bytes",
          "name": "approvalData",
          "type": "bytes"
        },
        {
          "internalType": "uint256",
          "name": "maxPossibleCharge",
          "type": "uint256"
        }
      ],
      "name": "acceptRelayedCall",
      "outputs": [
        {
          "internalType": "uint256",
          "name": "",
          "type": "uint256"
        },
        {
          "internalType": "bytes",
          "name": "",
          "type": "bytes"
        }
      ],
      "payable": false,
      "stateMutability": "view",
      "type": "function"
    },
    {
      "constant": false,
      "inputs": [
        {
          "internalType": "bytes",
          "name": "context",
          "type": "bytes"
        }
      ],
      "name": "preRelayedCall",
      "outputs": [
        {
          "internalType": "bytes32",
          "name": "",
          "type": "bytes32"
        }
      ],
      "payable": false,
      "stateMutability": "nonpayable",
      "type": "function"
    },
    {
      "constant": false,
      "inputs": [
        {
          "internalType": "bytes",
          "name": "context",
          "type": "bytes"
        },
        {
          "internalType": "bool",
          "name": "success",
          "type": "bool"
        },
        {
          "internalType": "uint256",
          "name": "actualCharge",
          "type": "uint256"
        },
        {
          "internalType": "bytes32",
          "name": "preRetVal",
          "type": "bytes32"
        }
      ],
      "name": "postRelayedCall",
      "outputs": [],
      "payable": false,
      "stateMutability": "nonpayable",
      "type": "function"
    },
    {
      "constant": false,
      "inputs": [
        {
          "internalType": "string",
          "name": "uri",
          "type": "string"
        },
        {
          "internalType": "uint256",
          "name": "dose",
          "type": "uint256"
        },
        {
          "internalType": "string",
          "name": "certificateId",
          "type": "string"
        }
      ],
      "name": "mint",
      "outputs": [],
      "payable": false,
      "stateMutability": "nonpayable",
      "type": "function"
    },
    {
      "constant": true,
      "inputs": [
        {
          "internalType": "address",
          "name": "userAddress",
          "type": "address"
        }
      ],
      "name": "getUserTokens",
      "outputs": [
        {
          "internalType": "string",
          "name": "",
          "type": "string"
        },
        {
          "internalType": "string",
          "name": "",
          "type": "string"
        }
      ],
      "payable": false,
      "stateMutability": "view",
      "type": "function"
    },
    {
      "constant": true,
      "inputs": [],
      "name": "getLatestTokens",
      "outputs": [
        {
          "internalType": "string",
          "name": "",
          "type": "string"
        },
        {
          "internalType": "string",
          "name": "",
          "type": "string"
        },
        {
          "internalType": "string",
          "name": "",
          "type": "string"
        },
        {
          "internalType": "string",
          "name": "",
          "type": "string"
        },
        {
          "internalType": "string",
          "name": "",
          "type": "string"
        },
        {
          "internalType": "string",
          "name": "",
          "type": "string"
        }
      ],
      "payable": false,
      "stateMutability": "view",
      "type": "function"
    }
  ],
  "bytecode": "0x608060405273d216153c06e857cd7f72665e0af1d7d82172f494600d60006101000a81548173ffffffffffffffffffffffffffffffffffffffff021916908373ffffffffffffffffffffffffffffffffffffffff16021790555060405180602001604052806000815250601190805190602001906200008092919062000319565b503480156200008e57600080fd5b506040518060400160405280600581526020017f436f5661630000000000000000000000000000000000000000000000000000008152506040518060400160405280600381526020017f56414300000000000000000000000000000000000000000000000000000000008152508181620001156301ffc9a760e01b620001cc60201b60201c565b6200012d6380ac58cd60e01b620001cc60201b60201c565b6200014563780e9d6360e01b620001cc60201b60201c565b81600990805190602001906200015d92919062000319565b5080600a90805190602001906200017692919062000319565b506200018f635b5e139f60e01b620001cc60201b60201c565b50505050620001c6600d60009054906101000a900473ffffffffffffffffffffffffffffffffffffffff16620002d560201b60201c565b620003c8565b63ffffffff60e01b817bffffffffffffffffffffffffffffffffffffffffffffffffffffffff1916141562000269576040517f08c379a000000000000000000000000000000000000000000000000000000000815260040180806020018281038252601c8152602001807f4552433136353a20696e76616c696420696e746572666163652069640000000081525060200191505060405180910390fd5b6001600080837bffffffffffffffffffffffffffffffffffffffffffffffffffffffff19167bffffffffffffffffffffffffffffffffffffffffffffffffffffffff1916815260200190815260200160002060006101000a81548160ff02191690831515021790555050565b80600c60006101000a81548173ffffffffffffffffffffffffffffffffffffffff021916908373ffffffffffffffffffffffffffffffffffffffff16021790555050565b828054600181600116156101000203166002900490600052602060002090601f016020900481019282601f106200035c57805160ff19168380011785556200038d565b828001600101855582156200038d579182015b828111156200038c5782518255916020019190600101906200036f565b5b5090506200039c9190620003a0565b5090565b620003c591905b80821115620003c1576000816000905550600101620003a7565b5090565b90565b61465680620003d86000396000f3fe608060405234801561001057600080fd5b50600436106101da5760003560e01c80636352211e11610104578063a87430ba116100a2578063c87b56dd11610071578063c87b56dd146113d4578063e06e0e221461147b578063e20c6d3d14611514578063e985e9c514611597576101da565b8063a87430ba14611082578063ac570411146111b6578063b88d4fde146111d4578063c298c388146112d9576101da565b806380274db7116100de57806380274db714610d6157806383947ea014610dee57806395d89b4114610faf578063a22cb46514611032576101da565b80636352211e14610c5157806370a0823114610cbf57806374e861d614610d17576101da565b806323b872dd1161017c57806342842e0e1161014b57806342842e0e14610a2e5780634f6ccce714610a9c578063519dc8d214610ade5780635e01eb5a14610c07576101da565b806323b872dd146106185780632f745c5914610686578063369b95f7146106e85780634223a1551461078f576101da565b8063081812fc116101b8578063081812fc14610423578063095ea7b31461049157806318160ddd146104df5780631da97ea3146104fd576101da565b806301ffc9a7146101df57806306bdc9491461024457806306fdde03146103a0575b600080fd5b61022a600480360360208110156101f557600080fd5b8101908080357bffffffffffffffffffffffffffffffffffffffffffffffffffffffff19169060200190929190505050611613565b604051808215151515815260200191505060405180910390f35b61039e6004803603606081101561025a57600080fd5b810190808035906020019064010000000081111561027757600080fd5b82018360208201111561028957600080fd5b803590602001918460018302840111640100000000831117156102ab57600080fd5b91908080601f016020809104026020016040519081016040528093929190818152602001838380828437600081840152601f19601f820116905080830192505050505050509192919290803590602001909291908035906020019064010000000081111561031857600080fd5b82018360208201111561032a57600080fd5b8035906020019184600183028401116401000000008311171561034c57600080fd5b91908080601f016020809104026020016040519081016040528093929190818152602001838380828437600081840152601f19601f82011690508083019250505050505050919291929050505061167a565b005b6103a8611d58565b6040518080602001828103825283818151815260200191508051906020019080838360005b838110156103e85780820151818401526020810190506103cd565b50505050905090810190601f1680156104155780820380516001836020036101000a031916815260200191505b509250505060405180910390f35b61044f6004803603602081101561043957600080fd5b8101908080359060200190929190505050611dfa565b604051808273ffffffffffffffffffffffffffffffffffffffff1673ffffffffffffffffffffffffffffffffffffffff16815260200191505060405180910390f35b6104dd600480360360408110156104a757600080fd5b81019080803573ffffffffffffffffffffffffffffffffffffffff16906020019092919080359060200190929190505050611e95565b005b6104e761206e565b6040518082815260200191505060405180910390f35b6105d66004803603604081101561051357600080fd5b81019080803573ffffffffffffffffffffffffffffffffffffffff1690602001909291908035906020019064010000000081111561055057600080fd5b82018360208201111561056257600080fd5b8035906020019184600183028401116401000000008311171561058457600080fd5b91908080601f016020809104026020016040519081016040528093929190818152602001838380828437600081840152601f19601f82011690508083019250505050505050919291929050505061207b565b604051808273ffffffffffffffffffffffffffffffffffffffff1673ffffffffffffffffffffffffffffffffffffffff16815260200191505060405180910390f35b6106846004803603606081101561062e57600080fd5b81019080803573ffffffffffffffffffffffffffffffffffffffff169060200190929190803573ffffffffffffffffffffffffffffffffffffffff169060200190929190803590602001909291905050506120d7565b005b6106d26004803603604081101561069c57600080fd5b81019080803573ffffffffffffffffffffffffffffffffffffffff16906020019092919080359060200190929190505050612146565b6040518082815260200191505060405180910390f35b610714600480360360208110156106fe57600080fd5b8101908080359060200190929190505050612205565b6040518080602001828103825283818151815260200191508051906020019080838360005b83811015610754578082015181840152602081019050610739565b50505050905090810190601f1680156107815780820380516001836020036101000a031916815260200191505b509250505060405180910390f35b6107976122be565b6040518080602001806020018060200180602001806020018060200187810387528d818151815260200191508051906020019080838360005b838110156107eb5780820151818401526020810190506107d0565b50505050905090810190601f1680156108185780820380516001836020036101000a031916815260200191505b5087810386528c818151815260200191508051906020019080838360005b83811015610851578082015181840152602081019050610836565b50505050905090810190601f16801561087e5780820380516001836020036101000a031916815260200191505b5087810385528b818151815260200191508051906020019080838360005b838110156108b757808201518184015260208101905061089c565b50505050905090810190601f1680156108e45780820380516001836020036101000a031916815260200191505b5087810384528a818151815260200191508051906020019080838360005b8381101561091d578082015181840152602081019050610902565b50505050905090810190601f16801561094a5780820380516001836020036101000a031916815260200191505b50878103835289818151815260200191508051906020019080838360005b83811015610983578082015181840152602081019050610968565b50505050905090810190601f1680156109b05780820380516001836020036101000a031916815260200191505b50878103825288818151815260200191508051906020019080838360005b838110156109e95780820151818401526020810190506109ce565b50505050905090810190601f168015610a165780820380516001836020036101000a031916815260200191505b509c5050505050505050505050505060405180910390f35b610a9a60048036036060811015610a4457600080fd5b81019080803573ffffffffffffffffffffffffffffffffffffffff169060200190929190803573ffffffffffffffffffffffffffffffffffffffff1690602001909291908035906020019092919050505061272d565b005b610ac860048036036020811015610ab257600080fd5b810190808035906020019092919050505061274d565b6040518082815260200191505060405180910390f35b610b2060048036036020811015610af457600080fd5b81019080803573ffffffffffffffffffffffffffffffffffffffff1690602001909291905050506127cd565b604051808060200180602001838103835285818151815260200191508051906020019080838360005b83811015610b64578082015181840152602081019050610b49565b50505050905090810190601f168015610b915780820380516001836020036101000a031916815260200191505b50838103825284818151815260200191508051906020019080838360005b83811015610bca578082015181840152602081019050610baf565b50505050905090810190601f168015610bf75780820380516001836020036101000a031916815260200191505b5094505050505060405180910390f35b610c0f612a1a565b604051808273ffffffffffffffffffffffffffffffffffffffff1673ffffffffffffffffffffffffffffffffffffffff16815260200191505060405180910390f35b610c7d60048036036020811015610c6757600080fd5b8101908080359060200190929190505050612a70565b604051808273ffffffffffffffffffffffffffffffffffffffff1673ffffffffffffffffffffffffffffffffffffffff16815260200191505060405180910390f35b610d0160048036036020811015610cd557600080fd5b81019080803573ffffffffffffffffffffffffffffffffffffffff169060200190929190505050612b38565b6040518082815260200191505060405180910390f35b610d1f612c0d565b604051808273ffffffffffffffffffffffffffffffffffffffff1673ffffffffffffffffffffffffffffffffffffffff16815260200191505060405180910390f35b610dd860048036036020811015610d7757600080fd5b8101908080359060200190640100000000811115610d9457600080fd5b820183602082011115610da657600080fd5b80359060200191846001830284011164010000000083111715610dc857600080fd5b9091929391929390505050612c37565b6040518082815260200191505060405180910390f35b610f2d6004803603610120811015610e0557600080fd5b81019080803573ffffffffffffffffffffffffffffffffffffffff169060200190929190803573ffffffffffffffffffffffffffffffffffffffff16906020019092919080359060200190640100000000811115610e6257600080fd5b820183602082011115610e7457600080fd5b80359060200191846001830284011164010000000083111715610e9657600080fd5b90919293919293908035906020019092919080359060200190929190803590602001909291908035906020019092919080359060200190640100000000811115610edf57600080fd5b820183602082011115610ef157600080fd5b80359060200191846001830284011164010000000083111715610f1357600080fd5b909192939192939080359060200190929190505050612c48565b6040518083815260200180602001828103825283818151815260200191508051906020019080838360005b83811015610f73578082015181840152602081019050610f58565b50505050905090810190601f168015610fa05780820380516001836020036101000a031916815260200191505b50935050505060405180910390f35b610fb7612c75565b6040518080602001828103825283818151815260200191508051906020019080838360005b83811015610ff7578082015181840152602081019050610fdc565b50505050905090810190601f1680156110245780820380516001836020036101000a031916815260200191505b509250505060405180910390f35b6110806004803603604081101561104857600080fd5b81019080803573ffffffffffffffffffffffffffffffffffffffff169060200190929190803515159060200190929190505050612d17565b005b6110c46004803603602081101561109857600080fd5b81019080803573ffffffffffffffffffffffffffffffffffffffff169060200190929190505050612eba565b60405180806020018060200184151515158152602001838103835286818151815260200191508051906020019080838360005b838110156111125780820151818401526020810190506110f7565b50505050905090810190601f16801561113f5780820380516001836020036101000a031916815260200191505b50838103825285818151815260200191508051906020019080838360005b8381101561117857808201518184015260208101905061115d565b50505050905090810190601f1680156111a55780820380516001836020036101000a031916815260200191505b509550505050505060405180910390f35b6111be613021565b6040518082815260200191505060405180910390f35b6112d7600480360360808110156111ea57600080fd5b81019080803573ffffffffffffffffffffffffffffffffffffffff169060200190929190803573ffffffffffffffffffffffffffffffffffffffff169060200190929190803590602001909291908035906020019064010000000081111561125157600080fd5b82018360208201111561126357600080fd5b8035906020019184600183028401116401000000008311171561128557600080fd5b91908080601f016020809104026020016040519081016040528093929190818152602001838380828437600081840152601f19601f8201169050808301925050505050505091929192905050506130e7565b005b611392600480360360208110156112ef57600080fd5b810190808035906020019064010000000081111561130c57600080fd5b82018360208201111561131e57600080fd5b8035906020019184600183028401116401000000008311171561134057600080fd5b91908080601f016020809104026020016040519081016040528093929190818152602001838380828437600081840152601f19601f820116905080830192505050505050509192919290505050613159565b604051808273ffffffffffffffffffffffffffffffffffffffff1673ffffffffffffffffffffffffffffffffffffffff16815260200191505060405180910390f35b611400600480360360208110156113ea57600080fd5b81019080803590602001909291905050506131a2565b6040518080602001828103825283818151815260200191508051906020019080838360005b83811015611440578082015181840152602081019050611425565b50505050905090810190601f16801561146d5780820380516001836020036101000a031916815260200191505b509250505060405180910390f35b6115126004803603608081101561149157600080fd5b81019080803590602001906401000000008111156114ae57600080fd5b8201836020820111156114c057600080fd5b803590602001918460018302840111640100000000831117156114e257600080fd5b909192939192939080351515906020019092919080359060200190929190803590602001909291905050506132b5565b005b61151c6132bc565b6040518080602001828103825283818151815260200191508051906020019080838360005b8381101561155c578082015181840152602081019050611541565b50505050905090810190601f1680156115895780820380516001836020036101000a031916815260200191505b509250505060405180910390f35b6115f9600480360360408110156115ad57600080fd5b81019080803573ffffffffffffffffffffffffffffffffffffffff169060200190929190803573ffffffffffffffffffffffffffffffffffffffff1690602001909291905050506133f6565b604051808215151515815260200191505060405180910390f35b6000806000837bffffffffffffffffffffffffffffffffffffffffffffffffffffffff19167bffffffffffffffffffffffffffffffffffffffffffffffffffffffff1916815260200190815260200160002060009054906101000a900460ff169050919050565b60018214806116895750600282145b61169257600080fd5b600073ffffffffffffffffffffffffffffffffffffffff166010826040518082805190602001908083835b602083106116e057805182526020820191506020810190506020830392506116bd565b6001836020036101000a038019825116818451168082178552505050505050905001915050908152602001604051809103902060009054906101000a900473ffffffffffffffffffffffffffffffffffffffff1673ffffffffffffffffffffffffffffffffffffffff161461175457600080fd5b61175c612a1a565b6010826040518082805190602001908083835b60208310611792578051825260208201915060208101905060208303925061176f565b6001836020036101000a038019825116818451168082178552505050505050905001915050908152602001604051809103902060006101000a81548173ffffffffffffffffffffffffffffffffffffffff021916908373ffffffffffffffffffffffffffffffffffffffff160217905550600f600061180f612a1a565b73ffffffffffffffffffffffffffffffffffffffff1673ffffffffffffffffffffffffffffffffffffffff16815260200190815260200160002060020160009054906101000a900460ff16611a6057611866614221565b604051806060016040528060118054600181600116156101000203166002900480601f0160208091040260200160405190810160405280929190818152602001828054600181600116156101000203166002900480156119075780601f106118dc57610100808354040283529160200191611907565b820191906000526020600020905b8154815290600101906020018083116118ea57829003601f168201915b5050505050815260200160118054600181600116156101000203166002900480601f0160208091040260200160405190810160405280929190818152602001828054600181600116156101000203166002900480156119a75780601f1061197c576101008083540402835291602001916119a7565b820191906000526020600020905b81548152906001019060200180831161198a57829003601f168201915b5050505050815260200160011515815250905080600f60006119c7612a1a565b73ffffffffffffffffffffffffffffffffffffffff1673ffffffffffffffffffffffffffffffffffffffff1681526020019081526020016000206000820151816000019080519060200190611a1d929190614244565b506020820151816001019080519060200190611a3a929190614244565b5060408201518160020160006101000a81548160ff021916908315150217905550905050505b6000600f6000611a6e612a1a565b73ffffffffffffffffffffffffffffffffffffffff1673ffffffffffffffffffffffffffffffffffffffff16815260200190815260200160002090506001831415611bcf5760116040516020018082805460018160011615610100020316600290048015611b135780601f10611af1576101008083540402835291820191611b13565b820191906000526020600020905b815481529060010190602001808311611aff575b505091505060405160208183030381529060405280519060200120816000016040516020018082805460018160011615610100020316600290048015611b905780601f10611b6e576101008083540402835291820191611b90565b820191906000526020600020905b815481529060010190602001808311611b7c575b50509150506040516020818303038152906040528051906020012014611bb557600080fd5b83816000019080519060200190611bcd9291906142c4565b505b6002831415611cf45760116040516020018082805460018160011615610100020316600290048015611c385780601f10611c16576101008083540402835291820191611c38565b820191906000526020600020905b815481529060010190602001808311611c24575b505091505060405160208183030381529060405280519060200120816001016040516020018082805460018160011615610100020316600290048015611cb55780601f10611c93576101008083540402835291820191611cb5565b820191906000526020600020905b815481529060010190602001808311611ca1575b50509150506040516020818303038152906040528051906020012014611cda57600080fd5b83816001019080519060200190611cf29291906142c4565b505b6000600e859080600181540180825580915050906001820390600052602060002001600090919290919091509080519060200190611d339291906142c4565b509050611d47611d41612a1a565b8261348a565b611d5181866134ab565b5050505050565b606060098054600181600116156101000203166002900480601f016020809104026020016040519081016040528092919081815260200182805460018160011615610100020316600290048015611df05780601f10611dc557610100808354040283529160200191611df0565b820191906000526020600020905b815481529060010190602001808311611dd357829003601f168201915b5050505050905090565b6000611e0582613535565b611e5a576040517f08c379a000000000000000000000000000000000000000000000000000000000815260040180806020018281038252602c8152602001806144ce602c913960400191505060405180910390fd5b6002600083815260200190815260200160002060009054906101000a900473ffffffffffffffffffffffffffffffffffffffff169050919050565b6000611ea082612a70565b90508073ffffffffffffffffffffffffffffffffffffffff168373ffffffffffffffffffffffffffffffffffffffff161415611f27576040517f08c379a000000000000000000000000000000000000000000000000000000000815260040180806020018281038252602181526020018061457e6021913960400191505060405180910390fd5b8073ffffffffffffffffffffffffffffffffffffffff163373ffffffffffffffffffffffffffffffffffffffff161480611f675750611f6681336133f6565b5b611fbc576040517f08c379a00000000000000000000000000000000000000000000000000000000081526004018080602001828103825260388152602001806144436038913960400191505060405180910390fd5b826002600084815260200190815260200160002060006101000a81548173ffffffffffffffffffffffffffffffffffffffff021916908373ffffffffffffffffffffffffffffffffffffffff160217905550818373ffffffffffffffffffffffffffffffffffffffff168273ffffffffffffffffffffffffffffffffffffffff167f8c5be1e5ebec7d5bd14f71427d1e84f3dd0314c0f7b2291e5b200ac8c7c3b92560405160405180910390a4505050565b6000600780549050905090565b600080839050612089612c0d565b73ffffffffffffffffffffffffffffffffffffffff168473ffffffffffffffffffffffffffffffffffffffff1614156120cd576120ca8360148551036135a7565b90505b8091505092915050565b6120e13382613631565b612136576040517f08c379a00000000000000000000000000000000000000000000000000000000081526004018080602001828103825260318152602001806145c56031913960400191505060405180910390fd5b612141838383613725565b505050565b600061215183612b38565b82106121a8576040517f08c379a000000000000000000000000000000000000000000000000000000000815260040180806020018281038252602b815260200180614396602b913960400191505060405180910390fd5b600560008473ffffffffffffffffffffffffffffffffffffffff1673ffffffffffffffffffffffffffffffffffffffff16815260200190815260200160002082815481106121f257fe5b9060005260206000200154905092915050565b600e818154811061221257fe5b906000526020600020016000915090508054600181600116156101000203166002900480601f0160208091040260200160405190810160405280929190818152602001828054600181600116156101000203166002900480156122b65780601f1061228b576101008083540402835291602001916122b6565b820191906000526020600020905b81548152906001019060200180831161229957829003601f168201915b505050505081565b60608060608060608060006001600e80549050039050600e60018203815481106122e457fe5b90600052602060002001600e60028303815481106122fe57fe5b90600052602060002001600e600384038154811061231857fe5b90600052602060002001600e600485038154811061233257fe5b90600052602060002001600e600586038154811061234c57fe5b90600052602060002001600e600687038154811061236657fe5b90600052602060002001858054600181600116156101000203166002900480601f0160208091040260200160405190810160405280929190818152602001828054600181600116156101000203166002900480156124055780601f106123da57610100808354040283529160200191612405565b820191906000526020600020905b8154815290600101906020018083116123e857829003601f168201915b50505050509550848054600181600116156101000203166002900480601f0160208091040260200160405190810160405280929190818152602001828054600181600116156101000203166002900480156124a15780601f10612476576101008083540402835291602001916124a1565b820191906000526020600020905b81548152906001019060200180831161248457829003601f168201915b50505050509450838054600181600116156101000203166002900480601f01602080910402602001604051908101604052809291908181526020018280546001816001161561010002031660029004801561253d5780601f106125125761010080835404028352916020019161253d565b820191906000526020600020905b81548152906001019060200180831161252057829003601f168201915b50505050509350828054600181600116156101000203166002900480601f0160208091040260200160405190810160405280929190818152602001828054600181600116156101000203166002900480156125d95780601f106125ae576101008083540402835291602001916125d9565b820191906000526020600020905b8154815290600101906020018083116125bc57829003601f168201915b50505050509250818054600181600116156101000203166002900480601f0160208091040260200160405190810160405280929190818152602001828054600181600116156101000203166002900480156126755780601f1061264a57610100808354040283529160200191612675565b820191906000526020600020905b81548152906001019060200180831161265857829003601f168201915b50505050509150808054600181600116156101000203166002900480601f0160208091040260200160405190810160405280929190818152602001828054600181600116156101000203166002900480156127115780601f106126e657610100808354040283529160200191612711565b820191906000526020600020905b8154815290600101906020018083116126f457829003601f168201915b5050505050905096509650965096509650965050909192939495565b612748838383604051806020016040528060008152506130e7565b505050565b600061275761206e565b82106127ae576040517f08c379a000000000000000000000000000000000000000000000000000000000815260040180806020018281038252602c8152602001806145f6602c913960400191505060405180910390fd5b600782815481106127bb57fe5b90600052602060002001549050919050565b606080600f60006127dc612a1a565b73ffffffffffffffffffffffffffffffffffffffff1673ffffffffffffffffffffffffffffffffffffffff16815260200190815260200160002060020160009054906101000a900460ff1661285457604051806020016040528060008152506040518060200160405280600081525091509150612a15565b600f60008473ffffffffffffffffffffffffffffffffffffffff1673ffffffffffffffffffffffffffffffffffffffff168152602001908152602001600020600001600f60008573ffffffffffffffffffffffffffffffffffffffff1673ffffffffffffffffffffffffffffffffffffffff168152602001908152602001600020600101818054600181600116156101000203166002900480601f01602080910402602001604051908101604052809291908181526020018280546001816001161561010002031660029004801561296d5780601f106129425761010080835404028352916020019161296d565b820191906000526020600020905b81548152906001019060200180831161295057829003601f168201915b50505050509150808054600181600116156101000203166002900480601f016020809104026020016040519081016040528092919081815260200182805460018160011615610100020316600290048015612a095780601f106129de57610100808354040283529160200191612a09565b820191906000526020600020905b8154815290600101906020018083116129ec57829003601f168201915b50505050509050915091505b915091565b6000612a6b336000368080601f016020809104026020016040519081016040528093929190818152602001838380828437600081840152601f19601f8201169050808301925050505050505061207b565b905090565b6000806001600084815260200190815260200160002060009054906101000a900473ffffffffffffffffffffffffffffffffffffffff169050600073ffffffffffffffffffffffffffffffffffffffff168173ffffffffffffffffffffffffffffffffffffffff161415612b2f576040517f08c379a00000000000000000000000000000000000000000000000000000000081526004018080602001828103825260298152602001806144a56029913960400191505060405180910390fd5b80915050919050565b60008073ffffffffffffffffffffffffffffffffffffffff168273ffffffffffffffffffffffffffffffffffffffff161415612bbf576040517f08c379a000000000000000000000000000000000000000000000000000000000815260040180806020018281038252602a81526020018061447b602a913960400191505060405180910390fd5b612c06600360008473ffffffffffffffffffffffffffffffffffffffff1673ffffffffffffffffffffffffffffffffffffffff168152602001908152602001600020613749565b9050919050565b6000600c60009054906101000a900473ffffffffffffffffffffffffffffffffffffffff16905090565b60006201e24060001b905092915050565b60006060600080905060405180602001604052806000815250915091509b509b9950505050505050505050565b6060600a8054600181600116156101000203166002900480601f016020809104026020016040519081016040528092919081815260200182805460018160011615610100020316600290048015612d0d5780601f10612ce257610100808354040283529160200191612d0d565b820191906000526020600020905b815481529060010190602001808311612cf057829003601f168201915b5050505050905090565b3373ffffffffffffffffffffffffffffffffffffffff168273ffffffffffffffffffffffffffffffffffffffff161415612db9576040517f08c379a00000000000000000000000000000000000000000000000000000000081526004018080602001828103825260198152602001807f4552433732313a20617070726f766520746f2063616c6c65720000000000000081525060200191505060405180910390fd5b80600460003373ffffffffffffffffffffffffffffffffffffffff1673ffffffffffffffffffffffffffffffffffffffff16815260200190815260200160002060008473ffffffffffffffffffffffffffffffffffffffff1673ffffffffffffffffffffffffffffffffffffffff16815260200190815260200160002060006101000a81548160ff0219169083151502179055508173ffffffffffffffffffffffffffffffffffffffff163373ffffffffffffffffffffffffffffffffffffffff167f17307eab39ab6107e8899845ad3d59bd9653f200f220920489ca2b5937696c3183604051808215151515815260200191505060405180910390a35050565b600f602052806000526040600020600091509050806000018054600181600116156101000203166002900480601f016020809104026020016040519081016040528092919081815260200182805460018160011615610100020316600290048015612f665780601f10612f3b57610100808354040283529160200191612f66565b820191906000526020600020905b815481529060010190602001808311612f4957829003601f168201915b505050505090806001018054600181600116156101000203166002900480601f0160208091040260200160405190810160405280929190818152602001828054600181600116156101000203166002900480156130045780601f10612fd957610100808354040283529160200191613004565b820191906000526020600020905b815481529060010190602001808311612fe757829003601f168201915b5050505050908060020160009054906101000a900460ff16905083565b600061302b613757565b73ffffffffffffffffffffffffffffffffffffffff166370a08231306040518263ffffffff1660e01b8152600401808273ffffffffffffffffffffffffffffffffffffffff1673ffffffffffffffffffffffffffffffffffffffff16815260200191505060206040518083038186803b1580156130a757600080fd5b505afa1580156130bb573d6000803e3d6000fd5b505050506040513d60208110156130d157600080fd5b8101908080519060200190929190505050905090565b6130f28484846120d7565b6130fe84848484613781565b613153576040517f08c379a00000000000000000000000000000000000000000000000000000000081526004018080602001828103825260328152602001806143c16032913960400191505060405180910390fd5b50505050565b6010818051602081018201805184825260208301602085012081835280955050505050506000915054906101000a900473ffffffffffffffffffffffffffffffffffffffff1681565b60606131ad82613535565b613202576040517f08c379a000000000000000000000000000000000000000000000000000000000815260040180806020018281038252602f81526020018061454f602f913960400191505060405180910390fd5b600b60008381526020019081526020016000208054600181600116156101000203166002900480601f0160208091040260200160405190810160405280929190818152602001828054600181600116156101000203166002900480156132a95780601f1061327e576101008083540402835291602001916132a9565b820191906000526020600020905b81548152906001019060200180831161328c57829003601f168201915b50505050509050919050565b5050505050565b6060806000368080601f016020809104026020016040519081016040528093929190818152602001838380828437600081840152601f19601f82011690508083019250505050505050905061330f612c0d565b73ffffffffffffffffffffffffffffffffffffffff163373ffffffffffffffffffffffffffffffffffffffff1614156133ef5760146000369050036040519080825280601f01601f19166020018201604052801561337c5781602001600182028038833980820191505090505b50905060008090505b81518110156133ed576000368281811061339b57fe5b9050013560f81c60f81b8282815181106133b157fe5b60200101907effffffffffffffffffffffffffffffffffffffffffffffffffffffffffffff1916908160001a9053508080600101915050613385565b505b8091505090565b6000600460008473ffffffffffffffffffffffffffffffffffffffff1673ffffffffffffffffffffffffffffffffffffffff16815260200190815260200160002060008373ffffffffffffffffffffffffffffffffffffffff1673ffffffffffffffffffffffffffffffffffffffff16815260200190815260200160002060009054906101000a900460ff16905092915050565b613494828261396a565b61349e8282613b82565b6134a781613c49565b5050565b6134b482613535565b613509576040517f08c379a000000000000000000000000000000000000000000000000000000000815260040180806020018281038252602c8152602001806144fa602c913960400191505060405180910390fd5b80600b600084815260200190815260200160002090805190602001906135309291906142c4565b505050565b6000806001600084815260200190815260200160002060009054906101000a900473ffffffffffffffffffffffffffffffffffffffff169050600073ffffffffffffffffffffffffffffffffffffffff168173ffffffffffffffffffffffffffffffffffffffff161415915050919050565b60006014820183511015613606576040517f08c379a000000000000000000000000000000000000000000000000000000000815260040180806020018281038252602681526020018061459f6026913960400191505060405180910390fd5b60148201915073ffffffffffffffffffffffffffffffffffffffff8284015116905080905092915050565b600061363c82613535565b613691576040517f08c379a000000000000000000000000000000000000000000000000000000000815260040180806020018281038252602c815260200180614417602c913960400191505060405180910390fd5b600061369c83612a70565b90508073ffffffffffffffffffffffffffffffffffffffff168473ffffffffffffffffffffffffffffffffffffffff16148061370b57508373ffffffffffffffffffffffffffffffffffffffff166136f384611dfa565b73ffffffffffffffffffffffffffffffffffffffff16145b8061371c575061371b81856133f6565b5b91505092915050565b613730838383613c95565b61373a8382613ef0565b6137448282613b82565b505050565b600081600001549050919050565b6000600c60009054906101000a900473ffffffffffffffffffffffffffffffffffffffff16905090565b60006137a28473ffffffffffffffffffffffffffffffffffffffff1661408e565b6137af5760019050613962565b60008473ffffffffffffffffffffffffffffffffffffffff1663150b7a02338887876040518563ffffffff1660e01b8152600401808573ffffffffffffffffffffffffffffffffffffffff1673ffffffffffffffffffffffffffffffffffffffff1681526020018473ffffffffffffffffffffffffffffffffffffffff1673ffffffffffffffffffffffffffffffffffffffff16815260200183815260200180602001828103825283818151815260200191508051906020019080838360005b8381101561388a57808201518184015260208101905061386f565b50505050905090810190601f1680156138b75780820380516001836020036101000a031916815260200191505b5095505050505050602060405180830381600087803b1580156138d957600080fd5b505af11580156138ed573d6000803e3d6000fd5b505050506040513d602081101561390357600080fd5b8101908080519060200190929190505050905063150b7a0260e01b7bffffffffffffffffffffffffffffffffffffffffffffffffffffffff1916817bffffffffffffffffffffffffffffffffffffffffffffffffffffffff1916149150505b949350505050565b600073ffffffffffffffffffffffffffffffffffffffff168273ffffffffffffffffffffffffffffffffffffffff161415613a0d576040517f08c379a00000000000000000000000000000000000000000000000000000000081526004018080602001828103825260208152602001807f4552433732313a206d696e7420746f20746865207a65726f206164647265737381525060200191505060405180910390fd5b613a1681613535565b15613a89576040517f08c379a000000000000000000000000000000000000000000000000000000000815260040180806020018281038252601c8152602001807f4552433732313a20746f6b656e20616c7265616479206d696e7465640000000081525060200191505060405180910390fd5b816001600083815260200190815260200160002060006101000a81548173ffffffffffffffffffffffffffffffffffffffff021916908373ffffffffffffffffffffffffffffffffffffffff160217905550613b22600360008473ffffffffffffffffffffffffffffffffffffffff1673ffffffffffffffffffffffffffffffffffffffff1681526020019081526020016000206140a1565b808273ffffffffffffffffffffffffffffffffffffffff16600073ffffffffffffffffffffffffffffffffffffffff167fddf252ad1be2c89b69c2b068fc378daa952ba7f163c4a11628f55a4df523b3ef60405160405180910390a45050565b600560008373ffffffffffffffffffffffffffffffffffffffff1673ffffffffffffffffffffffffffffffffffffffff168152602001908152602001600020805490506006600083815260200190815260200160002081905550600560008373ffffffffffffffffffffffffffffffffffffffff1673ffffffffffffffffffffffffffffffffffffffff1681526020019081526020016000208190806001815401808255809150509060018203906000526020600020016000909192909190915055505050565b6007805490506008600083815260200190815260200160002081905550600781908060018154018082558091505090600182039060005260206000200160009091929091909150555050565b8273ffffffffffffffffffffffffffffffffffffffff16613cb582612a70565b73ffffffffffffffffffffffffffffffffffffffff1614613d21576040517f08c379a00000000000000000000000000000000000000000000000000000000081526004018080602001828103825260298152602001806145266029913960400191505060405180910390fd5b600073ffffffffffffffffffffffffffffffffffffffff168273ffffffffffffffffffffffffffffffffffffffff161415613da7576040517f08c379a00000000000000000000000000000000000000000000000000000000081526004018080602001828103825260248152602001806143f36024913960400191505060405180910390fd5b613db0816140b7565b613df7600360008573ffffffffffffffffffffffffffffffffffffffff1673ffffffffffffffffffffffffffffffffffffffff168152602001908152602001600020614175565b613e3e600360008473ffffffffffffffffffffffffffffffffffffffff1673ffffffffffffffffffffffffffffffffffffffff1681526020019081526020016000206140a1565b816001600083815260200190815260200160002060006101000a81548173ffffffffffffffffffffffffffffffffffffffff021916908373ffffffffffffffffffffffffffffffffffffffff160217905550808273ffffffffffffffffffffffffffffffffffffffff168473ffffffffffffffffffffffffffffffffffffffff167fddf252ad1be2c89b69c2b068fc378daa952ba7f163c4a11628f55a4df523b3ef60405160405180910390a4505050565b6000613f486001600560008673ffffffffffffffffffffffffffffffffffffffff1673ffffffffffffffffffffffffffffffffffffffff1681526020019081526020016000208054905061419890919063ffffffff16565b9050600060066000848152602001908152602001600020549050818114614035576000600560008673ffffffffffffffffffffffffffffffffffffffff1673ffffffffffffffffffffffffffffffffffffffff1681526020019081526020016000208381548110613fb557fe5b9060005260206000200154905080600560008773ffffffffffffffffffffffffffffffffffffffff1673ffffffffffffffffffffffffffffffffffffffff168152602001908152602001600020838154811061400d57fe5b9060005260206000200181905550816006600083815260200190815260200160002081905550505b600560008573ffffffffffffffffffffffffffffffffffffffff1673ffffffffffffffffffffffffffffffffffffffff1681526020019081526020016000208054809190600190036140879190614344565b5050505050565b600080823b905060008111915050919050565b6001816000016000828254019250508190555050565b600073ffffffffffffffffffffffffffffffffffffffff166002600083815260200190815260200160002060009054906101000a900473ffffffffffffffffffffffffffffffffffffffff1673ffffffffffffffffffffffffffffffffffffffff16146141725760006002600083815260200190815260200160002060006101000a81548173ffffffffffffffffffffffffffffffffffffffff021916908373ffffffffffffffffffffffffffffffffffffffff1602179055505b50565b61418d6001826000015461419890919063ffffffff16565b816000018190555050565b600082821115614210576040517f08c379a000000000000000000000000000000000000000000000000000000000815260040180806020018281038252601e8152602001807f536166654d6174683a207375627472616374696f6e206f766572666c6f77000081525060200191505060405180910390fd5b600082840390508091505092915050565b604051806060016040528060608152602001606081526020016000151581525090565b828054600181600116156101000203166002900490600052602060002090601f016020900481019282601f1061428557805160ff19168380011785556142b3565b828001600101855582156142b3579182015b828111156142b2578251825591602001919060010190614297565b5b5090506142c09190614370565b5090565b828054600181600116156101000203166002900490600052602060002090601f016020900481019282601f1061430557805160ff1916838001178555614333565b82800160010185558215614333579182015b82811115614332578251825591602001919060010190614317565b5b5090506143409190614370565b5090565b81548183558181111561436b5781836000526020600020918201910161436a9190614370565b5b505050565b61439291905b8082111561438e576000816000905550600101614376565b5090565b9056fe455243373231456e756d657261626c653a206f776e657220696e646578206f7574206f6620626f756e64734552433732313a207472616e7366657220746f206e6f6e20455243373231526563656976657220696d706c656d656e7465724552433732313a207472616e7366657220746f20746865207a65726f20616464726573734552433732313a206f70657261746f7220717565727920666f72206e6f6e6578697374656e7420746f6b656e4552433732313a20617070726f76652063616c6c6572206973206e6f74206f776e6572206e6f7220617070726f76656420666f7220616c6c4552433732313a2062616c616e636520717565727920666f7220746865207a65726f20616464726573734552433732313a206f776e657220717565727920666f72206e6f6e6578697374656e7420746f6b656e4552433732313a20617070726f76656420717565727920666f72206e6f6e6578697374656e7420746f6b656e4552433732314d657461646174613a2055524920736574206f66206e6f6e6578697374656e7420746f6b656e4552433732313a207472616e73666572206f6620746f6b656e2074686174206973206e6f74206f776e4552433732314d657461646174613a2055524920717565727920666f72206e6f6e6578697374656e7420746f6b656e4552433732313a20617070726f76616c20746f2063757272656e74206f776e6572475245415445525f4f525f455155414c5f544f5f32305f4c454e4754485f52455155495245444552433732313a207472616e736665722063616c6c6572206973206e6f74206f776e6572206e6f7220617070726f766564455243373231456e756d657261626c653a20676c6f62616c20696e646578206f7574206f6620626f756e6473a265627a7a7231582092a86693741372618991732857e417eab3adcc06d97a2121332c6fa8d8d638c364736f6c63430005100032",
  "source": "pragma solidity 0.5.16;\r\n\r\nimport \"./ERC721Full.sol\";\r\nimport \"tabookey-gasless/contracts/GsnUtils.sol\";\r\nimport \"tabookey-gasless/contracts/IRelayHub.sol\";\r\nimport \"tabookey-gasless/contracts/RelayRecipient.sol\";\r\n\r\ncontract Color is ERC721Full, RelayRecipient {\r\n    struct User {\r\n        string dose1hash;\r\n        string dose2hash;\r\n        bool exists;\r\n    }\r\n\r\n    IRelayHub iRelayHub = IRelayHub(0xD216153c06E857cD7f72665E0aF1d7D82172F494);\r\n\r\n    string[] public uriList;\r\n    mapping(address => User) public users;\r\n    mapping(string => address) public certificateIdOwner;\r\n    string private defaultString = \"\";\r\n\r\n    constructor() public ERC721Full(\"CoVac\", \"VAC\") {\r\n        setRelayHub(iRelayHub);\r\n    }\r\n\r\n    function acceptRelayedCall(\r\n        address relay,\r\n        address from,\r\n        bytes calldata encodedFunction,\r\n        uint256 transactionFee,\r\n        uint256 gasPrice,\r\n        uint256 gasLimit,\r\n        uint256 nonce,\r\n        bytes calldata approvalData,\r\n        uint256 maxPossibleCharge\r\n    ) external view returns (uint256, bytes memory) {\r\n        return (0, \"\");\r\n    }\r\n\r\n    function preRelayedCall(bytes calldata context) external returns (bytes32) {\r\n        return bytes32(uint256(123456));\r\n    }\r\n\r\n    function postRelayedCall(\r\n        bytes calldata context,\r\n        bool success,\r\n        uint256 actualCharge,\r\n        bytes32 preRetVal /*relayHubOnly*/\r\n    ) external {}\r\n\r\n    function mint(\r\n        string memory uri,\r\n        uint256 dose,\r\n        string memory certificateId\r\n    ) public {\r\n        require(dose == 1 || dose == 2);\r\n        require(certificateIdOwner[certificateId] == address(0));\r\n\r\n        certificateIdOwner[certificateId] = getSender();\r\n\r\n        if (!users[getSender()].exists) {\r\n            User memory user = User(defaultString, defaultString, true);\r\n            users[getSender()] = user;\r\n        }\r\n\r\n        User storage user = users[getSender()];\r\n\r\n        if (dose == 1) {\r\n            require(\r\n                keccak256(abi.encodePacked(user.dose1hash)) ==\r\n                    keccak256(abi.encodePacked(defaultString))\r\n            );\r\n            user.dose1hash = uri;\r\n        }\r\n\r\n        if (dose == 2) {\r\n            require(\r\n                keccak256(abi.encodePacked(user.dose2hash)) ==\r\n                    keccak256(abi.encodePacked(defaultString))\r\n            );\r\n            user.dose2hash = uri;\r\n        }\r\n\r\n        uint256 _id = uriList.push(uri);\r\n\r\n        _mint(getSender(), _id);\r\n        _setTokenURI(_id, uri);\r\n    }\r\n\r\n    function getUserTokens(address userAddress)\r\n        public\r\n        view\r\n        returns (string memory, string memory)\r\n    {\r\n        if (!users[getSender()].exists) {\r\n            return (\"\", \"\");\r\n        }\r\n\r\n        return (users[userAddress].dose1hash, users[userAddress].dose2hash);\r\n    }\r\n\r\n    function getLatestTokens()\r\n        public\r\n        view\r\n        returns (\r\n            string memory,\r\n            string memory,\r\n            string memory,\r\n            string memory,\r\n            string memory,\r\n            string memory\r\n        )\r\n    {\r\n        uint256 l = uriList.length - 1;\r\n        return (\r\n            uriList[l - 1],\r\n            uriList[l - 2],\r\n            uriList[l - 3],\r\n            uriList[l - 4],\r\n            uriList[l - 5],\r\n            uriList[l - 6]\r\n        );\r\n    }\r\n}\r\n",
  "sourcePath": "C:/Users/An0N/Documents/Solidity/VacciNFT/src/contracts/Color.sol",
  "compiler": {
    "name": "solc",
    "version": "0.5.16+commit.9c3226ce.Emscripten.clang"
  },
  "schemaVersion": "3.3.1",
  "updatedAt": "2021-05-15T20:39:32.285Z",
  "networkType": "ethereum",
  "devdoc": {
    "methods": {
      "approve(address,uint256)": {
        "details": "Approves another address to transfer the given token ID The zero address indicates there is no approved address. There can only be one approved address per token at a given time. Can only be called by the token owner or an approved operator.",
        "params": {
          "to": "address to be approved for the given token ID",
          "tokenId": "uint256 ID of the token to be approved"
        }
      },
      "balanceOf(address)": {
        "details": "Gets the balance of the specified address.",
        "params": {
          "owner": "address to query the balance of"
        },
        "return": "uint256 representing the amount owned by the passed address"
      },
      "getApproved(uint256)": {
        "details": "Gets the approved address for a token ID, or zero if no address set Reverts if the token ID does not exist.",
        "params": {
          "tokenId": "uint256 ID of the token to query the approval of"
        },
        "return": "address currently approved for the given token ID"
      },
      "isApprovedForAll(address,address)": {
        "details": "Tells whether an operator is approved by a given owner.",
        "params": {
          "operator": "operator address which you want to query the approval of",
          "owner": "owner address which you want to query the approval of"
        },
        "return": "bool whether the given operator is approved by the given owner"
      },
      "name()": {
        "details": "Gets the token name.",
        "return": "string representing the token name"
      },
      "ownerOf(uint256)": {
        "details": "Gets the owner of the specified token ID.",
        "params": {
          "tokenId": "uint256 ID of the token to query the owner of"
        },
        "return": "address currently marked as the owner of the given token ID"
      },
      "safeTransferFrom(address,address,uint256)": {
        "details": "Safely transfers the ownership of a given token ID to another address If the target address is a contract, it must implement `onERC721Received`, which is called upon a safe transfer, and return the magic value `bytes4(keccak256(\"onERC721Received(address,address,uint256,bytes)\"))`; otherwise, the transfer is reverted. Requires the msg.sender to be the owner, approved, or operator",
        "params": {
          "from": "current owner of the token",
          "to": "address to receive the ownership of the given token ID",
          "tokenId": "uint256 ID of the token to be transferred"
        }
      },
      "safeTransferFrom(address,address,uint256,bytes)": {
        "details": "Safely transfers the ownership of a given token ID to another address If the target address is a contract, it must implement `onERC721Received`, which is called upon a safe transfer, and return the magic value `bytes4(keccak256(\"onERC721Received(address,address,uint256,bytes)\"))`; otherwise, the transfer is reverted. Requires the msg.sender to be the owner, approved, or operator",
        "params": {
          "_data": "bytes data to send along with a safe transfer check",
          "from": "current owner of the token",
          "to": "address to receive the ownership of the given token ID",
          "tokenId": "uint256 ID of the token to be transferred"
        }
      },
      "setApprovalForAll(address,bool)": {
        "details": "Sets or unsets the approval of a given operator An operator is allowed to transfer all tokens of the sender on their behalf.",
        "params": {
          "approved": "representing the status of the approval to be set",
          "to": "operator address to set the approval"
        }
      },
      "supportsInterface(bytes4)": {
        "details": "See `IERC165.supportsInterface`.      * Time complexity O(1), guaranteed to always use less than 30 000 gas."
      },
      "symbol()": {
        "details": "Gets the token symbol.",
        "return": "string representing the token symbol"
      },
      "tokenByIndex(uint256)": {
        "details": "Gets the token ID at a given index of all the tokens in this contract Reverts if the index is greater or equal to the total number of tokens.",
        "params": {
          "index": "uint256 representing the index to be accessed of the tokens list"
        },
        "return": "uint256 token ID at the given index of the tokens list"
      },
      "tokenOfOwnerByIndex(address,uint256)": {
        "details": "Gets the token ID at a given index of the tokens list of the requested owner.",
        "params": {
          "index": "uint256 representing the index to be accessed of the requested tokens list",
          "owner": "address owning the tokens list to be accessed"
        },
        "return": "uint256 token ID at the given index of the tokens list owned by the requested address"
      },
      "tokenURI(uint256)": {
        "details": "Returns an URI for a given token ID. Throws if the token ID does not exist. May return an empty string.",
        "params": {
          "tokenId": "uint256 ID of the token to query"
        }
      },
      "totalSupply()": {
        "details": "Gets the total amount of tokens stored by the contract.",
        "return": "uint256 representing the total amount of tokens"
      },
      "transferFrom(address,address,uint256)": {
        "details": "Transfers the ownership of a given token ID to another address. Usage of this method is discouraged, use `safeTransferFrom` whenever possible. Requires the msg.sender to be the owner, approved, or operator.",
        "params": {
          "from": "current owner of the token",
          "to": "address to receive the ownership of the given token ID",
          "tokenId": "uint256 ID of the token to be transferred"
        }
      }
    }
  },
  "userdoc": {
    "methods": {
      "getRecipientBalance()": {
        "notice": "return the balance of this contract. Note that this method will revert on configuration error (invalid relay address)"
      },
      "getSender()": {
        "notice": "return the sender of this call. if the call came through the valid RelayHub, return the original sender. otherwise, return `msg.sender` should be used in the contract anywhere instead of msg.sender"
      }
    }
  }
}